:020000040800F2
:10000000A00A00207D020008513800088F34000843
:100010004D380008D53200086B460008000000008B
:10002000000000000000000000000000D7400008B1
:10003000D932000800000000B93D0008E94100087D
:10004000970200089702000897020008970200082C
:10005000970200089702000897020008970200081C
:10006000970200089702000897020008970200080C
:1000700097020008970200089702000897020008FC
:1000800097020008970200089702000897020008EC
:1000900097020008970200089702000897020008DC
:1000A00097020008970200089702000897020008CC
:1000B0004D420008970200089702000897020008C6
:1000C00097020008970200089702000897020008AC
:1000D00097020008394400089702000897020008B8
:1000E00097020008970200089702000800F002F843
:1000F00000F0B5F80AA090E8000C82448344AAF10D
:100100000107DA4501D100F0AAF8AFF2090EBAE80A
:100110000F0013F0010F18BFFB1A43F0010318473B
:10012000606C0000806C00000A444FF0000C10F876
:10013000013B13F0070408BF10F8014B1D1108BF65
:1001400010F8015B641E05D010F8016B641E01F805
:10015000016BF9D113F0080F1EBF10F8014BAD1C55
:100160000C1B09D16D1E58BF01F801CBFAD505E073
:1001700014F8016B01F8016B6D1EF9D59142D6D3CD
:10018000704700000023002400250026103A28BFF5
:1001900078C1FBD8520728BF30C148BF0B607047F9
:1001A0006E2901F09784702900F07781662905F0A7
:1001B000A984652905F0A684672905F0A38461292F
:1001C00005F0A28403681B0A28BF41F08001692959
:1001D00000F0E880642900F0E580752900F0E280F5
:1001E0006F2901F08885782900F04381E92901F021
:1001F0002385E42901F02085F52901F01D85EF29EB
:1002000001F08585F82900F042810368DB0928BFE9
:1002100041F08001632901F0BA80732901F0BF80A9
:10022000E32902F0B181F32902F0B6810020704782
:100230001FB500F003FE04000020002105F05CF86B
:10024000401C60600020002105F040F8E0600020C4
:10025000002105F025F820611FBD10B510BD01F08B
:10026000D1FF1146FFF7E4FF04F03EFD02F0E2FB90
:1002700003B4FFF7F2FF03BC04F0F0FA094880472B
:1002800009480047FEE7FEE7FEE7FEE7FEE7FEE778
:10029000FEE7FEE7FEE7FEE704480549054A064B90
:1002A00070470000ED410008ED000008A0040020A8
:1002B000A00A0020A0060020A00600207047000031
:1002C0000FB4044910B503AA029801F06DF810BCF0
:1002D0005DF814FB380100200FB41CB5084B06AACA
:1002E0007B4469460090059801F02FF804460020F1
:1002F000694601F03DF820461CBC5DF814FB000087
:100300008D10000070B5044685690068C10601D5EE
:10031000302600E02026C00707D070BDD4E90121B7
:1003200030469047206A401C20626D1EF6D570BD95
:1003300070B5044685690078C00707D170BDD4E95F
:10034000012120209047206A401C20626D1EF6D5B6
:1003500070BD70B50C460546012A05D02878800688
:1003600000D5EA69002302E0012305E05B1C93420B
:1003700002D2E05C0028F9D1A869E618C01AA86189
:10038000286A184428622846FFF7BCFF04E0D5E934
:10039000012114F8010B9047B442F8D32846FFF727
:1003A000C7FF70BD2DE9F04106460024106875298D
:1003B000314616A510D001F07BFB002802DA40423E
:1003C00013A507E031688A0701D512A502E04907A5
:1003D00004D511A5012401E001F073FB00210A22DC
:1003E00006F1240709E0B0FBF2FCB0FBF2F302FBDC
:1003F0001C00303078541846491C0028F3D123469D
:100400002A463046BDE8F04100F032BD0000000051
:100410002D0000002B00000020000000F0B40D466D
:100420000188090502D5214C7C4402E01F4C7C4424
:100430000E34002100F1240608E002F00F07120933
:10044000E75D42EA03721B097754491C52EA03072D
:10045000F3D102780023120704D5702D06D009B11C
:10046000022311342246F0BC00F002BD01231034F7
:10047000F8E770B504460D462146106801F021FBEF
:10048000024629462046BDE870400023C6E7D21D3B
:1004900022F00703D3E90023C0E70368126843F0A2
:1004A000200303600823C3610023B7E7C46500008D
:1004B0002DE9F05F894604464FF0000ADFF874B179
:1004C000FB44C0F820A02046E1688847002874D08B
:1004D000252806D0D4E901219047206A401C2062DB
:1004E000F1E700265F462046E16888472028054658
:1004F00007DB312D05D2781910F8200C08B106431E
:10050000F1E7B00701D526F00406C4F81CA00027C7
:10051000C4F818A02A2D09D0284604F098F938B359
:1005200004EB8708303DC8F8185019E059F8041B4F
:10053000204604EB87029161E1688847012F054658
:1005400018D1E069002820DA26F020061DE0D8F84E
:10055000180000EB800005EB40003038C8F81800A8
:100560002046E1688847054604F071F90028EED17D
:10057000012F0AD02E2D08D12046E16888477F1C24
:100580000546022F46F02006C4DBA069002803DAE6
:10059000404246F00106A061F00701D026F01006A7
:1005A0006C2D0BD0682D09D04C2D39D06A2D35D04B
:1005B000742D35D07A2D33D016E038E0E1682F461F
:1005C00020468847B842054609D16C2F26D04FF403
:1005D0008060E168064320468847054604E06C2FAA
:1005E0001AD04FF4807006430DB3A5F141001928CD
:1005F00002D8203546F400664A4629462046266041
:100600004E46FFF7CDFD80B101280BD0F61D26F038
:10061000070000F1080956E74020E4E78020D8E70A
:100620000020D6E706F104094DE7284652E7206A84
:10063000BDE8F09F546500000FB400B58DB010A95F
:10064000099000910B904FF0FF300A9000200C9021
:10065000064878440690064878446A4607900F9901
:1006600009A801F043F90DB05DF814FBB7120000C2
:10067000CF1200002DE9FF5F1D464FF0FF3B914672
:100680004FF000085F46D5E90146A96901987F1C33
:100690008847296A824688470028F6D1BAF1FF3F89
:1006A0000CD0002E24F4C06419DD600614D5BAF114
:1006B0002B0F09D0BAF12D0F0ED103E0584604B02C
:1006C000BDE8F09F44F48064A96901987F1C8847C5
:1006D000761E8246002E02DDBAF1300F03D0B9F14A
:1006E000000F26D032E0A969761E01987F1C44F4E1
:1006F00000748847002E824605DDBAF1780F06D0D7
:10070000BAF1580F03D0B9F1000F10D01EE0B9F1C3
:10071000000F02D0B9F1100F18D1A969761E019807
:100720007F1C24F4007488478246102002E00820D1
:1007300000E00A20814609E0A96908FB0908761E45
:1007400001987F1C44F4007488478246002E05DD22
:100750004946504600F03AFE0028EDDAE969019872
:100760008847A00502D46FF00100A8E7E00725D173
:10077000600613D5600502D5C8F1000000E04046D0
:1007800029680A1D2A600968220501D5087015E04C
:10079000220701D5088011E008600FE02868011DDC
:1007A00029600068210502D580F8008006E0210755
:1007B00002D5A0F8008001E0C0F8008038467EE74E
:1007C0002DE9FF5F4FF000089946144646469169AF
:1007D000D2E901A7DDF838B001988847054659EA03
:1007E0000B0005D009E0A1690198761C88470546F1
:1007F000216A284688470028F5D1681C03D05FEAA3
:10080000CA7005D015E04FF0FF3004B0BDE8F09F8E
:100810002068011D2160D0F800800AE05FEACA70FC
:1008200001D108F8015BA169761C01987F1E8847F9
:100830000546002F1ADD681C18D0B9F1000F0DD045
:10084000E81705EBD060421120F01F0059F8221084
:100850002A1A012090400142E0D107E0BBF1000FCD
:10086000DCD12846216A88470028D7D0E169019861
:100870008847BBF1000F07D1002E05DD5FEACA7083
:1008800002D1002188F80010A068B84203DDBBF156
:10089000000F03D017B16FF00100B6E73046B4E7A0
:1008A00030B505460B462A4613F8014B12F8010BEA
:1008B00008B1A042F8D01CB1002802D06D1CF1E7AD
:1008C000284630BD40EA0103024630B59B0710D1EF
:1008D0004FF0013400E008C208C91D1B9D4315EA12
:1008E000C41FF8D013F0FF0102F8011B0DD01B0A42
:1008F000F8E711F8013B002B02F8013B05D011F895
:10090000013B002B02F8013BF3D130BD10B5431C75
:1009100002E010F8011B71B18107FAD14FF00132EA
:1009200002C88C1A8C4314EAC211F9D0C01A0A0604
:1009300003D0C01E10BDC01A10BD0A0401D0801E15
:1009400010BD0902FCD0401E10BD40EA010370B585
:100950009B072ED14FF00136042A2AD308C810C9AC
:100960009D1B9D43121F15EAC61517D0D8B2E1B2E0
:10097000401A50EA056110D198B2A1B2401A50EA6B
:1009800005410AD123F07F4024F07F41401A50EA0C
:10099000052102D1180EA0EB146070BDA342DBD07C
:1009A00018BA21BA884201D9012070BD4FF0FF303A
:1009B00070BD0AB9002070BD10F8013B11F8014B61
:1009C00063B1A3420AD1521E08D010F8013B11F8BE
:1009D000014B1BB1A34201D1521EEDD1181B70BDBA
:1009E0004FF000020429C0F0128010F0030C00F058
:1009F0001B80CCF1040CBCF1020F18BF00F8012BD6
:100A0000A8BF20F8022BA1EB0C0100F00DB85FEAA3
:100A1000C17C24BF00F8012B00F8012B48BF00F86F
:100A2000012B70474FF0000200B5134694469646DE
:100A3000203922BFA0E80C50A0E80C50B1F12001F1
:100A4000BFF4F7AF090728BFA0E80C5048BF0CC09F
:100A50005DF804EB890028BF40F8042B08BF7047FD
:100A600048BF20F8022B11F0804F18BF00F8012B6F
:100A7000704710B5044610F0030F08BF11F0030FC4
:100A800040F015804FF0013E121FC0F20E8051F869
:100A9000043BA3EB0E0C2CEA030C1CEACE1C08BF93
:100AA00040F8043BF0D0A1F1040102F10402521E0F
:100AB00008DB11F8013B002B00F8013BF7D1114690
:100AC000FFF78EFF204610BD014900F03FBF000038
:100AD0001404002070B5054601B90721541A241DDD
:100AE000B4F5B67F09DD286800F05DF9A04204DCAA
:100AF0002868401C2860012070BD002C05DA286899
:100B0000401E286000F04FF90444072094FBF0F0E9
:100B1000401C70BD2DE9F04F1F4615468B4682469E
:100B2000002689B000F08AF9D0F810800024BBF1CB
:100B3000000F70D015F8010B10B125280DD10FE072
:100B400024B1641E06A850F82450F3E70021304673
:100B50000AF8061009B0BDE8F08F0AF80600C7E0F1
:100B6000E94615F8010B592870D023DC49286ED0CE
:100B700014DC44286DD008DC2528EED041283ED076
:100B8000422849D043282CD156E04528E9D04628B0
:100B900069D0472876D0482823D17AE04D380C28F0
:100BA0001FD2DFE800F0881E061E1E9BA0A9B3B569
:100BB000C1CFD6E75A38212813D2DFE800F011124E
:100BC00012121212121A2637455012592612741296
:100BD00012797E128012891296A212B3BDCB110037
:100BE000A8E725200AF80600761C5E4513D26D1E84
:100BF000A0E7D8F80010BA69D8F8240011E0D8F8B6
:100C00000410BA69D8F828000BE0D8F808103A693F
:100C1000D8F82C0005E0B2E0D8F80C103A69D8F802
:100C2000300002FB001101EB0809AAE006A840F819
:100C30002450D8F818108AE07969642091FBF0F20A
:100C40001332484668A192E0FA6889E08AE022E01F
:100C5000FFE706A840F8245065A5641C6AE7FA6817
:100C600066A1484683E006A840F8245064A5F4E74E
:100C7000384600F0ADF8642190FBF1F201FB12025E
:100C800058E0FFE7384600F0A3F802465FA1684647
:100C90006DE0BA6864E0B8680C210B3090FBF1F2AB
:100CA00001FB120205E0FA6959A14846521C5EE0B8
:100CB0003A694DA1F9E77A6852E00A2116E0B8686E
:100CC0000C2802DAD8F81010ADE7D8F81410AAE70B
:100CD00006A840F82450D8F8341038E006A840F8A8
:100CE00024504DA5B9E73A683AE009210AF8061000
:100CF000761C5E45B2D342E006A840F8245048A5D1
:100D0000ABE7BA6902B9072248A1AAE700210CE0C3
:100D1000786900F26C700890D7E9061208A8FFF70E
:100D2000D9FE06E0BA69EFE70121D7E9062000F015
:100D30002EF802462CA1AAE706A840F82450D8F8BD
:100D40001C1004E006A840F82450D8F8201001EB4D
:100D5000080582E77969642091FBF0F200FB12122A
:100D600021A17EE77A69484628A102F26C7200F060
:100D700069F806E00AF80600761C5E4501D30020FB
:100D8000E8E619F8010B00283FF4DFAEF2E7511A4C
:100D900000D5C91D401A01D500207047072190FBDE
:100DA000F1F0401C704781070CD1642190FBF1F2F7
:100DB00001FB120151B94FF4C87190FBF1F201FB34
:100DC000120018B1002000F26D1070470120FAE700
:100DD00008B5416901F26C710091D0E906126846CC
:100DE000FFF778FE009808BD252E32640000000051
:100DF000256D2F25642F2579000000002532640021
:100E000025592D256D2D2564000000002564000066
:100E1000252E33640000000025483A254D000000CF
:100E200025483A254D3A255300000000252E31640F
:100E300000000000704770477047704700487047D7
:100E4000600400200FB41CB5084B06AA7B44694619
:100E50000090059800F079FA04460020694600F0F9
:100E600087FA20461CBC5DF814FB00002105000039
:100E70002DE9F0470D4699469246044600F12408B4
:100E80000168880604D5E06921F01001216000E0C6
:100E90000120A84201DD471B00E00027A1697A1963
:100EA00002EB0900081AA0612078C00602D420468F
:100EB000FFF728FA002608E0D4E901211AF8060015
:100EC0009047206A401C761C20624E45F4DB207857
:100ED000C0060AD52046FFF715FA06E0D4E901213D
:100EE00030209047206A401C2062381EA7F101077D
:100EF000F4DC07E0D4E9012118F805009047206AE6
:100F0000401C2062281EA5F10105F3DC2046FFF7F6
:100F10000FFA2078000602D50220BDE8F0870120F4
:100F2000FBE770472DE9FF4F0C461E464FF0FF3799
:100F30008BB0D2E90001DDF860800A908A46C1F3E7
:100F40000A5505B93D46002108464FF00000BAF1A8
:100F5000000F00F4400005DA00EB80004FF4400180
:100F600001EA50004FEA9059B9F1010F00DDB9468E
:100F70000A9850EA4A000ED044F61050A5F2FF3508
:100F800045432F14B8F1000F1ED07542291E1EDDF7
:100F9000C9F100021CE0B8F1010F4FF0000001D0D0
:100FA000302103E0F24305E02154401CB042FBDB5A
:100FB00030460022002121540B99C1F80880C1E974
:100FC00000200FB0BDE8F08FBD1B6D1CDEE74A4668
:100FD00000DA694206A801F05FF806AB93E8070063
:100FE00003AB83E8070050460A9901F03FFD8DE806
:100FF0000700A0F500501F3800900398002D0ADD6F
:1010000042F21F014A460844002303A903906846A0
:1010100001F0EAFF09E0A0F500504A461F3800231E
:1010200003A90390684602F009F88DE80700000460
:10103000000C03D04FF0FF30410800E01046B8F13B
:10104000000F03D00022009215461EE0751E05D445
:1010500000F0E0FC303262556D1EF9D5B346012236
:10106000084302D000227F1C04E02078302801D100
:1010700000227F1E002A099784D01DE0112D07DA77
:1010800000F0C8FC303262556D1C50EA0102F5D107
:10109000084302D00098C8B10EE00021681E05E0A8
:1010A000235C625C63542254401E491C8142F7DB7E
:1010B000AB46A81B401E0990002004F80B000B98BB
:1010C000099AC0F80880C0E9002B7AE711264FF092
:1010D000000857E72DE9F04F88460446D21D22F05C
:1010E000070191B0D1E90001CDE90A0103F01AFB33
:1010F00002460B98C00F01D02D2007E02068810721
:1011000001D52B2002E0202101EAC000032A09902A
:1011100001D0072A05DB03464146204600F0EEFCDD
:101120000BE12078800601D5E06900E00620B8F1E7
:10113000650F814606D0B8F1660F18D0B8F1670F79
:1011400070D131E00020B9F1110F009001DB1123C3
:1011500001E009F101030AAA01A90CA8FFF7E2FEC8
:10116000DDE90C70002609F10105834647E0012006
:101170004B4600904FF000470AAA01A90CA8FFF7C0
:10118000D1FEDDE90DB00C995D46002610B909F1DC
:1011900001000D18B9EB050003D4C0F1FF3609F1C9
:1011A0000105A5EB09002BE0B9F1010F01DA4FF0C1
:1011B00001090020B9F1110F0090484601DD11230B
:1011C00000E003460AAA01A90CA8FFF7ABFEDDE97F
:1011D0000C704D4600268346207800070AD4AB45A4
:1011E00000DA5D4601A8012D04DD411911F8011C4A
:1011F000302907D04F4502DA17F1040F04DA012035
:1012000082460FE06D1EEEE7002F02DCED1B3E4430
:1012100003E0781CA84200DD7D1CB81B00F1010A28
:101220004FF000472078000703D4AA4501DB4FF0B8
:10123000FF3A0021B7F1004F0DF143088DF843103C
:1012400024D002202B23002F01DA7F422D230A21F4
:10125000021EA0F1010000DC5FB197FBF1FC97FBDF
:10126000F1F201FB1C7C17460CF1300C08F801CDA3
:10127000EEE7A8F1010003702188090501D5452199
:1012800000E06521A0F1010800F8011C09980FA9F0
:10129000A1EB0807FF1D00B10120411901EBEA7025
:1012A000A1693844081A401EA0612078C00602D403
:1012B0002046FFF727F8099828B1D4E90121904783
:1012C000206A401C20622078C00622D52046FFF705
:1012D00019F81EE0002E04DBB34502DD01A8805D95
:1012E00000E03020D4E901219047206A401C2062B0
:1012F000761CAAF101005FEA000A0AD1FFF79EFD01
:10130000C0680168405CD4E901219047206A401C14
:101310002062281EA5F10105DCDC07E0D4E90121EB
:1013200018F8010B9047206A401C2062381EA7F174
:101330000107F3DC2046FEF7FBFF032011B041E676
:1013400001694A1C02610878704700B58FB0CDE989
:1013500001310021059105497944CDE90310114679
:101360006846FFF7A5F80FB000BD0000E5FFFFFFDE
:101370000A6802F8010B0A60704710B5436913B19F
:10138000AFF3008001E0FEF7E4FF012010BD12780A
:1013900000F124010A7000224A700122EDE7116871
:1013A0004FF0FF32E9E70000074B70B50D467B4474
:1013B000FFF7CBFF0446284600F0E0FE10B14FF0E7
:1013C000FF3070BD204670BD4B3700003A2800D278
:1013D000303820F02002412A01D3A2F137008842A0
:1013E00001D34FF0FF3070472DE9FF4F06468BB019
:1013F0000878FF2806D0491C2D2805D000244FF07E
:10140000000908E000200CE00124F8E709EB89035B
:10141000491C00EB43090878FF28F7D114B1C9F142
:1014200000008146107800252C46AA4629462D2822
:1014300001D02B2804D1521C2D2813D00020824625
:101440008B461078FF280FD04FF0000C0A21521C59
:10145000A5FB017804FB018105FB0C11C5194BEBC1
:101460000104EEE70120EAE7002108464FF0000002
:10147000BAF1000F02D000EB80004008C0F38157A2
:10148000012F01DD4FF0FF370E9955EA040009EBFB
:1014900001080BD04FF0020918F5FA7F16DA4FEA6F
:1014A000CA70002F706008DD012007E04FEACA70A3
:1014B000C6E900B00FB0BDE8F08F0020306000F04A
:1014C000A5FAC0F800901821084616E0B8F5FA7F92
:1014D00018DD002F02DAF748784401E0F648784436
:1014E000D0E90010C6E9001040EACA70706000F050
:1014F0008DFAC0F80090142108460FB0BDE8F04FF7
:1015000004F0FDBA002108464FF00000B8F10001D8
:10151000099002DAC7F1000200E03A4601DAC8F1A8
:10152000000106A800F0B8FD06AB93E8070003AB86
:1015300083E8070044F23E005BEA0401009058464D
:1015400004D144F21E012C465D460091210C090491
:10155000014306D10099240444EA15442D041039AE
:10156000009104F07F41014306D10099240244EA2E
:1015700015642D020839009104F07041014306D131
:101580000099240144EA15742D01091F009104F00B
:101590004041014306D10099A40044EA9574AD008E
:1015A000891E009104F00041084304D100986D1990
:1015B0006441401E00904FF001033A466846B8F17E
:1015C000000FCDE9014503A902DD01F04CFD01E06A
:1015D00001F01FFDBAF1000F04460D4601D084F062
:1015E0000044002108464FF00000099940F2FF77BF
:1015F000484010F00C0F07D124F00040284303D0DE
:10160000C4F30A50B84212D100F000FAC0F80090BA
:10161000C4F30A50B8420AD1A8487844D0E900106F
:10162000C6E9001004F000410843706042E7C6E9D3
:1016300000543FE72DE9FF4F1F464FF0000A4FF0DF
:10164000FF38454691B0D7E90146CDF83CA0FFF7F9
:10165000F5FBC0680168405C1090B96912986D1C78
:101660008847396A814688470028F6D1B9F1FF3F9B
:101670000AD0002E24F4D06411DDB9F12B0F08D06C
:10168000B9F12D0F0BD102E0404615B013E744F439
:101690008064B96912986D1C8847761E8146600582
:1016A00004A901D52D2000E02B20002E01F1010B13
:1016B0000DF130088DF810003FDDB9F1690F08D049
:1016C000B9F1490F05D0B9F16E0F02D0B9F14E0F43
:1016D0001CD13B4601A8009580E85002DDE91212BA
:1016E0006FF0020004F076FAC11CCED10EE0B969A9
:1016F00012986D1C884781461398761E44F4007436
:1017000005600F98401C002E0F9016DDB9F1300FC8
:10171000EDD0B9F1780F02D0B9F1580F0DD10F9873
:1017200001280AD13B46CDE90054DDE91212001F21
:10173000029604F04DFAC11CA7D1109989453ED1FB
:1017400044F0800406E01399681CAAF1010A44F4ED
:1017500000740860B9696D1C1298761E884730289D
:101760008146F0D02BE01099894505D1200603D49D
:10177000761E44F0800418E0484603F068F808B389
:10178000761E0DF123018B4544F4007408D2A9F1B3
:1017900030000BF8010B200607D5AAF1010003E089
:1017A000200602D40AF101008246A00502D5139951
:1017B000681C0860B96912986D1C88478146002E24
:1017C000D1DC53E0002E51DDB9F1650F02D0B9F143
:1017D000450F4BD1A00549D5B9696D1C1298761EED
:1017E00024F440748847002E81460CDD2B2804D059
:1017F000B9F12D0F07D144F48074B96912986D1CAA
:101800008847761E8146E00501D52D2100E02B2179
:1018100008F8011BCDF8008021E0761E0DF139019A
:10182000884544F400740CD2A9F1300010F0FF0098
:1018300088F8000002D10099884509D908F101080B
:1018400006E0E00501D51E4801E042F20F70824635
:10185000B96912986D1C8847814613980560002E5F
:1018600004DD484602F0F3FF0028D6D1F96912984A
:101870008847FF2053468BF8000088F800000020BE
:101880000A900B9004AA0CA90AA8FFF7ADFDA005C9
:1018900002D46FF00100F8E614F0240F12D0E00734
:1018A0001CD13868DDE90A12031D3B600068C0E9FD
:1018B000001213E0CC580000BE5800008257000010
:1018C000F1D8FFFF0AA9684602F050FFE00705D1F2
:1018D0003868009A011D3960006802602846D4E625
:1018E000026811441378016018467047D1600549B9
:1018F0007944516104497944116200211161114612
:1019000000F010BAEDFFFFFFA5010000426842B1F0
:10191000016811F8013B23B1521EC0E900121846BC
:1019200070470121C160881E704742685AB1C36880
:10193000016843B983688B4205D0491E521CC0E937
:101940000012002070474FF0FF30704770B50C4612
:10195000016800204A1C3ED03C22B1FBF2F302FB9E
:101960001313B1FBF2F12360B1FBF2F302FB13138B
:10197000B1FBF2F118226360B1FBF2F302FB131327
:10198000B1FBF2F146F2E0320A440721A360B2FB58
:10199000F1F301FB132140F2B553B2FBF3F5A16162
:1019A000B2FBF3F103FB15228900B2F5B77F08D330
:1019B0009B10521EB2FBF3F52944B2FBF3F503FB77
:1019C00015220F4BE261616189077B440CD03B2AF1
:1019D0000AD3521C08E02C212046FFF723F80120EF
:1019E000E0600AE0521A401C195C9142FAD9521C7C
:1019F000C4E903204FF0FF302062204670BD000094
:101A0000FA5000000048704740040020004870472A
:101A10004004002030B5B0F10A024FEA900E71F197
:101A200000034EEA817EB0EB0E0061EB91014FEABC
:101A3000101E4EEA017E10EB0E0041EB11114FEA31
:101A4000102E4EEA016E10EB0E0041EB11214FEA11
:101A5000104E4EEA014E10EB0E0041EB11414018C2
:101A600041F100014FEAD00040EA41704FEAD10154
:101A700010EB80054FEA810444EA907444EB0104C2
:101A80006D1944EB0404521BA3414FF0000348BFFF
:101A90000A3200D530BD401C41F1000130BD10B507
:101AA000044600F0D5FB0068005D00F0010010BDA9
:101AB00009684A0501D540B27047C905FCD500B296
:101AC000704709684A0501D5C0B27047C905FCD501
:101AD00080B2704711680268006A530501D508702A
:101AE0000AE0D30501D5088006E0130603D5C21726
:101AF000C1E9000200E00860012070472DE9F041D3
:101B00001F46044603260168072A01F4006004DB2F
:101B100008B116A505E016A503E008B115A500E07B
:101B200015A521F010002060A069C01EA0610FB1B2
:101B3000401EA0612046FEF7E5FB4FB1D4E901212C
:101B400038469047206A401C2062C01C206206E094
:101B5000206AFAE7D4E9012115F8010B9047761EB7
:101B6000F8D22046FEF7E4FBBDE8F0814E414E007E
:101B70006E616E00494E4600696E66002DE9FF5F9A
:101B800015468A460446DFF8AC80F8440027D8E9B9
:101B900000103E46CDE9001010E03AF816106A46F3
:101BA00002A800F027FF411C07D02178890603D541
:101BB000E269391891420DD80744761C20788006D6
:101BC00002D5E069B84205DDAE42E6DB3AF8160020
:101BD0000028E2D1A069C01BA0612046FEF792FB5D
:101BE000D8E90010CDE90010002017E03AF81810ED
:101BF0006A4602A800F0FEFEB0F1FF3F81460BD01E
:101C000000250DF1080B05E0D4E901211BF80500C2
:101C100090476D1C4D45F7D308F10100B042804656
:101C2000E4DB206A384420622046FEF781FBBDE8F1
:101C3000FF9F00009E4E00002DE9F0418046D21D1E
:101C400022F007020025D2E90002F52915A614D0DA
:101C5000011E72F1000106DA0023D0EB030063EBF2
:101C6000020211A608E0D8F800108B0701D50FA6D4
:101C700002E0490701D50EA601251146002408F10E
:101C8000240704E0FFF7C6FE30323A55641C50EAE0
:101C90000102F7D12B46324621464046BDE8F041CD
:101CA000FFF7E6B8000000002D0000002B00000048
:101CB0002000000030B4002100F1240408E002F00C
:101CC0000705D208303542EA4372DB086554491CE7
:101CD00052EA0305F3D10468002310A2250707D5B3
:101CE000A40600D421B1C46901230DA2641EC461FD
:101CF00030BCFFF7BDB810B5044621461068FFF7A9
:101D0000E0FE02462046BDE810400023D2E7D21D87
:101D100022F00701D1E90023CCE700000000000019
:101D2000300000002DE9F34F4FF0000A0C465646F4
:101D30008DB001200C9001F10C000B9062690B98A2
:101D400001219047051E2DD0252D2CD0216A8847D2
:101D5000C0B162690B9801219047216A8847002829
:101D6000F7D16269411E0B98904700E0761CA1698B
:101D70000D988847216A88470028F7D1E1690D98B6
:101D80008847DBE7A1690D988847A842074601D13B
:101D9000761CD3E7E1690D9888477F1C02D1BAF120
:101DA000000F6FD06BE162690B9800273D46394602
:101DB00090472A2804D162690B9801219047012598
:101DC000DFF8D08262690B9801219047A0F13001C1
:101DD0000A290AD24745E5DC07EB870100EB4107FA
:101DE000303FDFD445F01005ECE7E90601D46FF091
:101DF00000476C280AD04C2814D0682815D06A28CF
:101E00000DD074281CD07A281AD01DE062690B9876
:101E1000012190476C2802D045F0040514E045F0FC
:101E200002050DE045F020050AE062690B980121EA
:101E30009047682802D045F0080505E045F40065A4
:101E400062690B9801219047C4E9015765283DD08C
:101E500019DC58287AD00CDC452837D004DC25283A
:101E600026D041289ED131E046282FD0472899D14D
:101E70002CE05B2877D0612828D063287CD06428A8
:101E800023D15AE0F6E06F2848D008DC66281DD040
:101E900067281BD0692821D06E2816D127E070282A
:101EA00045D0732868D0752847D078280DD14DE0EB
:101EB000A1690D988847252805463FF469AFE16977
:101EC0000D9888476D1C3FF46AAFD8E00D99234602
:101ED0006A466FF0010003F079FEC5E045F040006E
:101EE00023464FF000026060A80736D43EE0E807C2
:101EF0007FF447AF2068011D21600068290501D5E6
:101F000006701BE7290701D5068017E7A90703D547
:101F1000F117C0E9006111E706600FE745F04000E6
:101F200023464FF008026060A80716D41EE040F672
:101F30000E0125EA0100606016E045F040002346EE
:101F40004FF00A026060A80707D40FE045F0400098
:101F50006060A80708D5234610220D996FF0010094
:101F6000AFF3008080E007E0102223460D996FF068
:101F70000100FEF77FFB77E04FF0000963284F4632
:101F8000C8464B46CB4602D05B2806D038E0E80670
:101F900001D40120A060012732E06269D4F80CB0BE
:101FA0000B98012190475E2807D14FF0010949465F
:101FB0006269D4F80CB00B989047216939B90021B7
:101FC0000A4603AB43F82120491C0829FADBD8B3A1
:101FD000216949B308F1010862690B980121904712
:101FE0005D28F4D1B9F1000F09D0002003A951F800
:101FF0002020D24341F82020401C0828F7DB03AB07
:102000002069002820794FEA40701ED05B462246A6
:10201000CDF80080CDE901970D9900286FF00100FF
:1020200020DAAFF300801FE0C11703AA00EBD161F3
:102030004B1121F01F0102EB8302411A13680120AA
:10204000884003431360C7E719E00D992246002832
:102050006FF00100009702DAAFF3008004E0FEF7B2
:10206000AFFB01E0AFF3008000280ADA401C06D184
:102070000C9820B14FF0FF300FB0BDE8F08F504604
:10208000FAE7E90701D10AF1010A064400200C90A1
:1020900054E60000CCCCCC0C2DE9F0478146164626
:1020A0008AB0354878440DC88DE80D003248784430
:1020B000801C03AC0DC884E80D0041F69B30084439
:1020C000372190FBF1F290FBF1F5A5F1800501FBC2
:1020D00012041B3C02D56442012000E00020DFF81E
:1020E00098A080460027FA44AAF1BE0A0EE0E00755
:1020F0000AD03246684607EB470101230AEB81010B
:1021000000F09CFF8DE8070064107F1C002CEED1CE
:10211000194F7F44AE3F19E0E80715D007EB0410D4
:102120000DF1180A90E80E008AE80E00C068F0422F
:1021300001D1981908903246012306A903A800F09E
:102140007DFF03AB83E807006D10641C002DE3D115
:102150004FF0010332466946B8F1000F03A802D0E0
:1021600000F042FF01E000F069FFC9E90001C9F891
:1021700008200AB0BDE8F087084A0000007B00F0A4
:10218000800070474FF0013C50F8042B51F8043B9D
:102190009A4221D1A2EB0C03934313EACC1317D13B
:1021A00050F8042B51F8043B9A4215D1A2EB0C03D2
:1021B000934313EACC130BD150F8042B51F8043B92
:1021C0009A4209D1A2EB0C03934313EACC13DBD060
:1021D0004FF00000704700BFD01A01BAB1FA81F188
:1021E00001F0180122FA01F0CB40C1F12001DBB26D
:1021F000C0B2C01A2CFA01F3D11A914311EAC311EB
:10220000E6D170477546FFF7FDFBAE46050069460F
:10221000534620F00700854618B020B5FEF73CF87D
:10222000BDE820404FF000064FF000074FF00008D7
:102230004FF0000B21F00701AC46ACE8C009ACE858
:10224000C009ACE8C009ACE8C0098D467047000081
:1022500010B5FEF7F3FD001D10BD00BF9D3000005E
:1022600010B5FFF7D3FB006810BD10B50446FFF7AB
:10227000CDFB046010BD00002DE9F04F04460D4673
:10228000D21D22F0070089B0D0E9009748463946B0
:1022900002F048FA0246F80F01D02D2307E020682B
:1022A000810701D52B2302E0202101EAC0038DF82C
:1022B00020300BB1012000E00020032A824601D02B
:1022C000072A04DB29462046FFF718FC3FE1207867
:1022D000800601D40D2500E0E569C7F30A560D2DEF
:1022E00049DA00214FEA175B08464FF00000002F43
:1022F00000F4400007DA00EB80004FF4400100EBEF
:10230000D07001EA60008115012901DD4FF0FF3135
:1023100000224FEA850CBCF1180F06D31346ACF12E
:1023200018004FF08052C24003E04FF4801323FAAC
:102330000CF30CF10C0CBCF1200F04D3ACF1200C0D
:1023400009FA0CF001E007FA0CF000294FF0004800
:1023500001DD18B90FE00ED140450CD319EB02098D
:102360005F4121B9404502D19F4329EA0209BBEBF5
:10237000175F00D0761C2088000502D57B48784482
:1023800002E07A487844193808AA302302F80A3063
:10239000037C0AF10101002E0AF1020A53546A4635
:1023A00002DC4FF0300101E04FF031014FF0010845
:1023B0008DF8001002D0A6F2FF3603E059EA47017B
:1023C00000D06B4E002D02DC2178090704D54FF0B8
:1023D00002082E218DF80110C44600210BE0C7F33E
:1023E00003433F01C35C491C6D1E02F808300529F8
:1023F00008F1010801DA002DF1DC00210CE000EB0E
:102400001973491C1B786D1E082902F808304FEA21
:10241000091908F1010801DA002DF0DC21688B06AA
:1024200002D516E0A8F10108E04505DD02EB08033E
:1024300013F8013C302BF5D0B8F1000F09DD02EBA9
:10244000080313F8013C2E2B03D1090701D4A8F18E
:102450000108002D05DD3E2102F808106D1E08F16F
:102460000108407C002E02F8080008F1010804DA97
:102470002D20764202F8080002E02B2002F8080026
:102480000A214FF47A70864208F101080BDB96FBB3
:10249000F0F3303302F8083096FBF0F308F101084E
:1024A00000FB136601E0642E0CDB642096FBF0F366
:1024B000303302F8083096FBF0F308F1010800FB16
:1024C000136601E00A2E06DB96FBF1F0303002F8CD
:1024D000080008F1010896FBF1F001FB10603030B4
:1024E00002F80800A16908F1010808EB050202EBF7
:1024F0000A00081AA0612078C00602D42046FDF721
:1025000001FF216A08AE01EB0A00206204E0D4E971
:10251000012116F8010B9047BAF1010AF7D2207891
:10252000C00602D52046FDF7EDFE6E4609E016F81E
:10253000010B3E280FD0D4E901219047206A401CAE
:102540002062B8F10108F2D22046FDF7F1FE09B091
:102550000320BDE8F08F206A2844206203E0D4E91C
:102560000121302090476D1EEBD3F8E7654700004E
:1025700002FCFFFF10B5436913B1AFF3008001E027
:10258000FFF7FCFA012010BD128800F124018284BB
:102590000022C2840122EDE711684FF0FF32E9E723
:1025A0002DE9FF4F1F464FF03C0987B04FF0004226
:1025B000DDE9141001F10108DDF858A002EA4050ED
:1025C0000390002005908346054604460490B969AF
:1025D000461E08988847AAF1010A0290BAF1000F36
:1025E0003BDD02982E2815D01021FEF7EFFE0028C3
:1025F0002EDB4FF0010B0599014317D0B9F1000F05
:102600000BDB4A46C11700F01EFA05430C43A9F143
:10261000040905E0012004900BE008B145F0010534
:1026200001200590049820B9361D02E0049800B1FD
:10263000361FB969089808F101088847BBF1000FF7
:10264000AAF1010A0290C9D00999C1F80080C5E732
:102650000298702808D0502806D0F9690898884751
:10266000BBF1000F14D04FE0002002900120BBF11D
:10267000000F049009D0B969089808F1010888474B
:10268000AAF10109B9F1000F07DCF9690898884738
:102690006FF001000BB0BDE8F08F2B2804D02D287F
:1026A0000CD14FF0FF300490B969089808F1010887
:1026B0008847A9F10109B9F1000FE6DD411CE4D01A
:1026C0000A21FEF783FE0028DFDB029908F10108EA
:1026D00001EB810100EB41000290B969089888473D
:1026E0000A21FEF773FE099AA9F10109B9F1000F59
:1026F000C2F8008001DD0028E7DAF9690898884708
:102700000499029800FB016655EA040004D004F025
:102710004041090002D006E0039898E0A40044EA92
:102720009574AD00B61E04F00041080002D16D1989
:102730006441761E159810F0240F03D04FF00B095A
:102740005C4803E04FF028096FF07D008246564553
:1027500007DAAAEB06018944B9F1410F01DD4FF018
:10276000410901200021A9F1010200F06CF90246A3
:1027700028400B462140084301D0012100E0002100
:10278000501E029143F1FF3128402140084301D0FF
:10279000012000E000200299834651EA0B014FD04E
:1027A000002108464FF00000039900F4400039B1C1
:1027B00000EB80004FF4400100EBD07001EA6000B4
:1027C0008015012802DD4FF0FF3000E013D0401CDF
:1027D00036D0029860B3BBF1000F0CD14A460120FD
:1027E000002100F030F928402140084301D00120A9
:1027F00000E00020E0B101204A46002100F023F96A
:10280000034640190A4661412D1A8C4111D3B9F192
:10281000400F09DD159810F0240F02D0AAF13406FC
:1028200003E0AAF1170600E0761C00254FF00044F3
:1028300006E05B1E42F1FF3220EA030521EA0204B2
:10284000CAF10100B04206DA1B490398084301901F
:10285000002000900EE0039AC4F3D321E80A0A4353
:10286000164940EA44500A433146CDE90002684621
:1028700001F0E2FF159810F0240F0BD01598C00757
:1028800015D13868DDE90012031D3B600068C0E91E
:1028900000120CE002A8694601F068FF1598C00715
:1028A00005D13868029A011D39600068026040460F
:1028B000F0E6000002FCFFFF0000F07F0000F03FA8
:1028C0002DE9FF4F92461D4685B04FF00041DDE9EE
:1028D000124BDDE914727F1E01EA4B50414940F072
:1028E000FF4940EA0108002122F020004928049114
:1028F00002D04E2828D04CE03BA0012607C88DE826
:102900000700A9690698641C88477F1E014606D403
:102910001DF8060018B121F0200181420BD0E969B1
:1029200006988847032E34D0082E32D06FF001006D
:1029300009B0BDE8F08F761C032E01D0082EE0D13F
:10294000601CCAF80000DCE7A9690698641C884787
:102950007F1E2AD420F02000412826D1A96906989C
:10296000641C88477F1E20D420F020004E281CD1F4
:10297000A9690698641C88477F1E48F4002849F41A
:102980008009CAF8004001D4282806D0E9690698D1
:1029900088475FEACB7012D022E0A9690698641CD0
:1029A00088477F1E01D4002803DAE9690698884722
:1029B000BCE72928F1D1641CCAF80040E9E71BF004
:1029C000240F07D028680499031D2B600068C0E914
:1029D000001805E02868021D2A600068C0F8009011
:1029E0002046A5E70000F07F494E46494E4954591C
:1029F0000000000070B516460C460546FFF728FC9F
:102A0000036893F80101012806D0FF2C0FD8185D48
:102A100068B101202C7070BDD3F807013246214601
:102A200003F2071303442846BDE8704018474FF0EF
:102A3000FF3070BD10B50446AFF300802046BDE8FE
:102A40001040FDF715BCB2F120030AD5C2F12003F6
:102A500001FA02F120FA03F300FA02F041EA03015D
:102A6000704700FA03F14FF0000070475FEA400C36
:102A700008BF91F0000F4FEA8C234FEAC12243EACE
:102A800051514FEA1C5018BF00F5F0404FEA30009A
:102A900018BF41F000415FEA6C5C00F02980BCF196
:102AA000FF3F08BF40F080407047130C06BF120480
:102AB0004FF0100C4FF0000C130E04BF12020CF17B
:102AC000080C130F04BF12010CF1040C930F04BF88
:102AD00092000CF1020CD30F04BF52000CF1010C58
:102AE00011464FF00002A0F11F00A0EB0C00704750
:102AF00011F0004F08BF704731F000413FF4D5AFEF
:102B00000B0C06BF09044FF0100C4FF0000C0B0E1D
:102B100004BF09020CF1080C0B0F04BF09010CF1F2
:102B2000040C8B0F04BF89000CF1020CCB0F04BF07
:102B300049000CF1010CCCF12003A0EB0C0022FAAF
:102B400003F302FA0CF241EA030100F101007047BD
:102B500020F07F4C80EA030023F07F47ACEB0703B3
:102B600003F57C5300F0004003F1FF032DE9804999
:102B70004FEA154B09B44FEA144325EA0B4E24EAF9
:102B800003480FF2042606EB132749083E785FEA54
:102B9000320203FB0667C7F5000707FB06F64FEA9C
:102BA00054374FEAD64606F1020607FB066CCCF115
:102BB000005C4FEA1C472CEA074C07FB06F40CFBB1
:102BC00006F504EB15464FEA961634BF00204FF089
:102BD00000404FEAD13706FB07FC4FEA1C4C0CFBC8
:102BE0000BF7D21B03FB0CF761EB07010CFB0EF795
:102BF000B0EB074072EB17420CFB08F734BFA2EBB7
:102C00000742B2EB074261EB17414FEA0C444FEA2F
:102C1000910706FB07FC4FEA1C4C0CFB0BF7B0EBD3
:102C2000C74072EB573203FB0CF734BFA2EBC7422D
:102C3000B2EBC74261EB57310CFB0EF7B0EBC700AC
:102C400072EB57720CFB08F734BFA2EBC702B2EB72
:102C5000C70261EB5771039F4FEA816141EA92110C
:102C600004EBCC044FEAD1374FEA826206FB07FC43
:102C700042EA90124FEA80604FEA1C4C0CFB0BF7C3
:102C8000D21B03FB0CF761EB07010CFB0EF7B0EB5B
:102C9000074072EB17420CFB08F734BFA2EB074268
:102CA000B2EB074261EB17414FEA8C554FEA9107AF
:102CB00004EB9C2406FB07FC4FEA1C4C0CFB0BF7B7
:102CC000B0EBC74072EB573203FB0CF734BFA2EBFB
:102CD000C742B2EBC74261EB57310CFB0EF7B0EBCA
:102CE000C70072EB57720CFB08F734BFA2EBC702A8
:102CF000B2EBC70261EB577115EB4C254FEA8161CE
:102D000041EA92114FEA82624FEAD13742EA9012C9
:102D100006FB07FC44F100044FEA80604FEA1C4CBC
:102D20000CFB0BF7D21B03FB0CF761EB07010CFB51
:102D30000EF7B0EB074072EB17420CFB08F734BFFD
:102D4000A2EB0742B2EB074261EB174115EB1C15F2
:102D50004FEA813141EA92414FEA823242EA90429F
:102D60004FEA80304FEA0C7644F1000448EA03430E
:102D70004EEA0B484FF0000EB2EB080C71EB030764
:102D800024BF624639464EEB0E0E4FF0000B001882
:102D9000524149414BEB0B0BB2EB080C71EB0307B3
:102DA0007BF1000B24BF624639464EEB0E0E4FF00E
:102DB000000B0018524149414BEB0B0BB2EB080CD6
:102DC00071EB03077BF1000B24BF624639464EEBE3
:102DD0000E0E51EA020718BF46F0010616EB0E76FA
:102DE00055F1000254F1000103D5BDE88901BDE8A9
:102DF0000088BDE88901BDE80048B619524141EBA1
:102E00000101A3F10103704780807F7E7D7C7B7A86
:102E10007978777676757473727171706F6E6E6D86
:102E20006C6C6B6A6A69686867666665646463632C
:102E300062616160605F5F5E5E5D5D5C5C5B5B5AB2
:102E40005A5959585857575656555555545453531F
:102E500052525251515050504F4F4F4E4E4D4D4D7A
:102E60004C4C4C4B4B4B4A4A4A49494948484847C5
:102E70004747474646464545454444444443434303
:102E8000434242424241414146EA0646A3F570535D
:102E90004FEA164646EA42564FEAD22242EA4152E9
:102EA00010B54FEAD121A3F1010300F02FF820F073
:102EB000004000F1020C00F0004701EB0050114609
:102EC000BCF5006F40EA070000D210BDBAF1000F58
:102ED0000AD01CB503B44FF004004FF004014FF0CA
:102EE00000000FBCBDE810404FF00001BBF1010F26
:102EF000B9BF04484FF0FF310348002140EA070002
:102F000010BD00BFFFFFEF7F0000F07F002B9C464D
:102F100030D477002BD01CB54FEA370703B44FF0FD
:102F200010004FF01001BAF1000F06D0BCF1000FF5
:102F3000DCBF40F0080040F008014FF000000FBC7B
:102F4000BDE810400BF1010BBBF1010F08BF5FEAB8
:102F5000170722BF12F1010211F101014FF00041E8
:102F600043F1000300F0004043EA00007047F9D34A
:102F70005708D0E746EA064613F1400F4FEA1646D7
:102F80001FDD13F1200FDFBF16430A460021203357
:102F90005B42BED0C3F1200746EA064602FA07F7B5
:102FA0004FEA164646EA0706C3F1200722FA03F263
:102FB00001FA07F721FA03F14FF0000342EA070292
:102FC000A7E746EA020646EA06464FEA164646EAFA
:102FD0000106BCBF46EA0646360C4FF000034FF030
:102FE00000024FF0000194E72DE9804C9A46934689
:102FF00070B491E8380007C831EA400C48BF34EAA1
:10300000430C03D5FFF7A4FDFFF780FFF0BCBDE83C
:10301000008C2DE9804C9A46934670B491E83800B4
:1030200007C831EA400C48BF34EA430C03D5FFF728
:103030008FFDFFF729FFF0BCBDE8008C2DE9804C27
:103040009A46934670B491E8380007C810F0804F54
:1030500008BF13F0804F03D100F01AF8FFF756FFB6
:10306000F0BCBDE8008C2DE9804C9A46934670B4C4
:1030700091E8380007C810F0804F08BF13F0804F68
:1030800003D100F005F8FFF7FFFEF0BCBDE8008CAF
:1030900020F07F4780EA030023F07F4C07EB0C030E
:1030A000A3F57C5300F00040A3F1FE0392F0000F63
:1030B00000F0B38095F0000F00F077802DE9014912
:1030C0004FEA11404FEA144621EA004800FB06FC93
:1030D00024EA064708FB06F607FB08F800FB07F79B
:1030E00018EB06484CEB164C4FEA124B18EB07480E
:1030F0004FEA15464CEB174022EA0B4E0BFB06FC41
:1031000025EA06470EFB06F607FB0EFE0BFB07F74C
:103110001EEB064E4CEB164C4FF000061EEB074E16
:103120004CEB174B18EB0B0840F1000018EB0E0BA3
:1031300058EB000840F100008F1A4FF000013CBF2F
:10314000C943661B14BFB5EB040C00213CBFC94347
:10315000F61B4FEA17444EEA8E0E27EA04454FEA63
:103160001C4704FB07622CEA074C05FB07F70CFB26
:1031700005F604FB0CFC16EB074642EB174216EB78
:103180000C4642EB1C421BEB060658EB0202414187
:1031900046EA9E0601D5BDE80189B619524141EBC8
:1031A0000101A3F10103BDE801894FEA14454FEA8B
:1031B000114724EA054621EA074C05FB07F406FB04
:1031C00007F70CFB06F105FB0CFC11EB074144EB88
:1031D00017444FEA124711EB0C4144EB1C4422EA1E
:1031E000074C05FB07F206FB07F70CFB06F605FB91
:1031F0000CFC16EB074642EB174216EB0C4642EB73
:103200001C456A1854F1000148BF7047B619524175
:1032100041EB0101A3F10103704795F0000F37D096
:103220004FEA11424FEA144721EA024624EA074CCA
:1032300002FB07F106FB07F70CFB06F402FB0CFC94
:1032400014EB074441EB17414FEA154714EB0C44CC
:1032500041EB1C4125EA074C02FB07F506FB07F78B
:103260000CFB06F602FB0CFC16EB074645EB17457C
:1032700016EB0C4645EB1C42121951F1000148BFF8
:103280007047B619524141EB0101A3F101037047A8
:103290004FEA14454FEA114724EA054621EA074C54
:1032A00005FB07F106FB07F70CFB06F24FF00006E3
:1032B00005FB0CFC12EB074241EB174112EB0C42F1
:1032C00051EB1C4148BF7047921841EB0101A3F13B
:1032D0000103704700BFFEE770472DE9F041024649
:1032E00000250026002000230024002791F803C0B9
:1032F0000CF00F0591F803C00CF0100CBCF1000F9E
:1033000003D091F802C04CEA050591F800C0BCF169
:10331000000F31D0146800202BE04FF0010C0CFAA4
:1033200000F3B1F800C00CEA03069E4220D18300EE
:103330004FF00F0C0CFA03F7BC4305FA03FC4CEA00
:10334000040491F803C0BCF1280F06D14FF0010C22
:103350000CFA00FCC2F814C00AE091F803C0BCF1FA
:10336000480F05D14FF0010C0CFA00FCC2F810C058
:10337000401C0828D1D31460B1F800C0BCF1FF0F85
:1033800034DD546800202EE000F1080C4FF00108F5
:1033900008FA0CF3B1F800C00CEA03069E4221D1F2
:1033A00083004FF00F0C0CFA03F7BC4305FA03FC43
:1033B0004CEA040491F803C0BCF1280F05D100F1D8
:1033C000080C08FA0CF8C2F8148091F803C0BCF19C
:1033D000480F07D100F1080C4FF0010808FA0CF86B
:1033E000C2F81080401C0828CED35460BDE8F0819C
:1033F000F0B50A46002300240021002500F0004615
:10340000B6F1004F02D11D4EF16901E01B4E71680B
:10341000C0F3034583B200F44016B6F5401F08D14F
:1034200021F07061154E766826F07066134F7E604D
:1034300012E000F48016B6F5801F06D1032606FAC6
:1034400005F4A14341F0706106E0460D360103FA30
:1034500006F6B14341F0706122B1460D360103FA20
:1034600006F6314300F00046B6F1004F02D1034E9C
:10347000F16101E0014E7160F0BD0000000001400B
:10348000016170470AB1016100E04161704700BF0E
:10349000FEE7000010B500200F4908600F480068E3
:1034A00020F470400D4908600846006840F4405020
:1034B000086000200A49C1F8AC01022001F0C8FAF6
:1034C000012005490860022001F0C2FA00200449E9
:1034D000C1F8A80110BD0000A8812142040C0140E0
:1034E0000080214208B50121082000F077FC4FF44C
:1034F0004060ADF8000014208DF8030003208DF823
:10350000020069460448FFF7E8FE4FF440610248B4
:10351000FFF7B6FF08BD0000000C014010B5002009
:103520000F4908600F48006820F470400D4908609A
:103530000846006840F44050086001200A49C1F87C
:10354000AC01022001F084FA012005490860022044
:1035500001F07EFA00200449C1F8A80110BD000066
:10356000A8812142040C01400080214270B505462B
:1035700000241748006820F4704015490860084688
:10358000006840F400400860002616E00020114961
:103590000860022001F05CFA01200F49C1F8A8017F
:1035A0006006040E0B487C38006808B1601CC4B289
:1035B000012001F04DFA701CC6B2082EE6DB15B9E9
:1035C000FFF7ACFF01E0FFF765FF204670BD00008C
:1035D000040C0140A88121420080214270B50024E2
:1035E00016A0FCF76DFE00BF21E000F067F8204652
:1035F00000F030F800F0AEF8054600F085F825B987
:10360000214610A0FCF75CFE02E010A0FCF758FE7B
:10361000002C0ADD601CC11700EB11710911A0EB31
:10362000011111B90AA0FCF74BFE601CC4B2FF2CBB
:10363000DBDB02A0FCF744FE70BD00000D0A0D0AA2
:103640000000000025303278200000002D2D2000E1
:103650000D0A000070B504461548006820F470405B
:10366000134908600846006840F440500860002094
:1036700010490860002517E0E0090E49091D08609F
:103680006006040E022001F0E3F901200A49C1F8A6
:10369000A801022001F0DCF90020064908600220A0
:1036A00001F0D6F9681CC5B2082DE5DB70BD00003D
:1036B000040C0140A88121420080214210B50F482E
:1036C000006820F470400D4908600846006840F426
:1036D0004050086001200A4908600A49C1F8A80161
:1036E000042001F0B5F9002005490860042001F02C
:1036F000AFF900200349C1F8A80110BD040C014036
:10370000AC8121420080214210B50F48006820F4AE
:1037100070400D4908600846006840F44050086059
:1037200000200A4908600A49C1F8AC01042001F0F0
:103730008FF90120054908600549C1F8AC01042052
:1037400001F086F910BD0000040C0140A88121425F
:103750000080214210B500241448006820F4704015
:10376000124908600846006840F4004008600120E3
:103770000F49086001F06CF901200E49C1F8A80159
:1037800001F066F907E0601CC4B2FA2C03DDFFF714
:10379000BBFF012010BD0648803800680028F2D128
:1037A0000349091F086000BFF4E70000040C014052
:1037B000AC8121420080214210B5044601202070D6
:1037C000002060600AA104F10800FDF77BF80020EA
:1037D0006062A06284F82C00206307A104F1180045
:1037E000FDF770F8064860630648A06310BD00004E
:1037F000302E302E302E300031303030303000005E
:1038000048E17A3F1F852B3F08B50121112000F0C8
:10381000E5FA01210B48FFF7EBFD4FF40050ADF83E
:10382000000010208DF8030003208DF80200694687
:103830000548FFF752FD4FF400510348FFF720FE03
:1038400008BD0000000230000010014000BFFEE78C
:103850007047000070B5002100230F22C47804B324
:10386000154C246804F4E064C4F5E064210AC1F155
:103870000403CA40447804FA03F1847814402143D5
:1038800009010E4C0678A155047804F01F050124A7
:10389000AC4005786D11AD0005F1E025C5F800419B
:1038A00009E0047804F01F050124AC40044D0678BB
:1038B000761145F8264070BD0CED00E000E400E014
:1038C00080E100E002490143024A116070470000B4
:1038D0000000FA050CED00E070B500240EE00021B8
:1038E000204600F07DF9002504E0002000F054FAA5
:1038F000681CC5B2802DF8DB601CC4B2082CEEDB5E
:1039000070BD000008B50121082000F067FA102002
:103910008DF8030003208DF802004020ADF8000070
:1039200069460A48FFF7D9FC8020ADF800006946D7
:103930000648FFF7D2FC012240210448FFF7A2FD10
:10394000012280210148FFF79DFD08BD000C0140C8
:1039500070B50546002413E08020204100EA0502EE
:1039600080210E48FFF78EFD012240210B48FFF712
:1039700089FD002240210948FFF784FD601CC4B284
:10398000082CE9DB012240210448FFF77BFD0022DF
:1039900040210248FFF776FD70BD0000000C014099
:1039A00010B5012280210948FFF76CFD012240215A
:1039B0000648FFF767FD002280210448FFF762FDFB
:1039C000002240210148FFF75DFD10BD000C0140C1
:1039D00010B5002280210748FFF754FD0122402145
:1039E0000448FFF74FFD012280210248FFF74AFDFE
:1039F00010BD0000000C014070B5002406E0002559
:103A000000E06D1CB5F57A7FFBD3641CB4F57A7FBA
:103A1000F5D3FFF777FFAE2000F0AEF9D52000F028
:103A2000ABF9802000F0A8F9A82000F0A5F93F200C
:103A300000F0A2F9D32000F09FF9002000F09CF9DB
:103A4000402000F099F9A12000F096F9C82000F07C
:103A500093F9DA2000F090F9122000F08DF981201E
:103A600000F08AF9CF2000F087F9D92000F084F91E
:103A7000F12000F081F9DB2000F07EF9302000F029
:103A80007BF9A42000F078F9A62000F075F98D20CC
:103A900000F072F9142000F06FF9AF2000F06CF91B
:103AA000FFF71AFF70BD00002DE9F05F80468946E0
:103AB00015464FF0000B2846FCF728FF00F0FF0AE0
:103AC000002451E0285D7F2809DC2A5D49464046F4
:103AD00000F050F808F1080000F0FF0842E0285D0F
:103AE0007F283FDD28194078295D40EA012B002717
:103AF00036E007EB07101E4931F8100058452DD16C
:103B00004146484600F06CF800260AE007EB071132
:103B1000174A02EB4101891C885D00F03DF9701CD9
:103B2000C6B2102EF2DB09F10101C8B2414600F025
:103B300057F810260AE007EB07110D4A02EB410186
:103B4000891C885D00F028F9701CC6B2202EF2DBBB
:103B500008F1100000F0FF08601CC4B2781CC7B266
:103B60003C2FC6D3601CC4B25445ABDBBDE8F09F0C
:103B7000F86100082DE9F04106460D461746802EF3
:103B800002DD0026A81CC5B23146284600F028F800
:103B9000002409E0A7F12001104A02EB0111085DA1
:103BA00000F0FAF8601CC4B2082CF3DB691CC8B240
:103BB000314600F015F800240BE0A7F12001074A78
:103BC00002EB011204F10801505C00F0E5F8601C02
:103BD000C4B2082CF1DBBDE8F0810000085C0008ED
:103BE00070B505460C4645F0B00000F0C5F8102150
:103BF00041EA141000F0C0F804F00F0000F0BCF827
:103C000070BD00002DE9F04105460E461746721EB4
:103C1000D206110E6A1E5206100EFFF7E1FF0024B5
:103C200009E0A7F12001134A02EB0111085D00F041
:103C3000B3F8601CC4B2082CF3DB721ED206110E5E
:103C40006A1E012303EB4202D0B2FFF7C9FF002432
:103C50000BE0A7F12001074A02EB011204F1080171
:103C6000505C00F099F8601CC4B2082CF1DBBDE890
:103C7000F0810000085C00082DE9F04389B004469B
:103C8000606800F5E140039003A8FCF71DFF814642
:103C90004B4625A2142104A8FCF73CFF04AA0121ED
:103CA000084600F055F804F108020121022000F056
:103CB0004FF8142104A8FCF7B5FE206B01F07AFC44
:103CC00005462A460B461CA104A8FCF705FB04AADE
:103CD0000121032000F03CF894F82C0000F04CFF88
:103CE00005462A4604212020FFF7DEFE142104A801
:103CF000FCF798FEA06A01F05DFC05460E46606A7E
:103D000001F058FC07463A460B460DA104A8CDE940
:103D10000056FCF7E1FA04AA0121042000F018F88B
:103D200009B0BDE8F083000025592D256D2D2564CF
:103D30002025483A254D0000252E3066430000001E
:103D4000252E31664320252E3166252500000000F2
:103D50002DE9F04107460E461546002407E02A5D8E
:103D60003019C1B23846FFF74DFF601CC4B2285D60
:103D70000028F4D1BDE8F08110B50446FFF710FE2D
:103D80007820FFF7E5FD0020FFF7E2FD2046FFF772
:103D9000DFFDFFF71DFE10BD10B50446FFF700FE66
:103DA0007820FFF7D5FD4020FFF7D2FD2046FFF732
:103DB000CFFDFFF70DFE10BD7047000029B1064A88
:103DC000D2690243044BDA6104E0034AD2698243B8
:103DD000014BDA61704700000010024029B1064A29
:103DE00092690243044B9A6104E0034A9269824358
:103DF000014B9A61704700000010024030B500216D
:103E00000022002400232D4D6D6805F00C0121B126
:103E1000042905D0082923D105E0294D056022E0B9
:103E2000274D05601FE0254D6D6805F47012234D88
:103E30006D6805F48034022505EB92421CB9214DD2
:103E4000554305600BE01D4D6D6805F400351DB14F
:103E50001C4D5543056002E0194D5543056002E0D5
:103E6000174D056000BF00BF144D6D6805F0F001EF
:103E70000909154D6B5C0568DD4045600F4D6D68A7
:103E800005F4E061090A104D6B5C4568DD40856012
:103E90000A4D6D6805F46051C90A0B4D6B5C4568AD
:103EA000DD40C560054D6D6805F44041890B074D47
:103EB0006B5CC568B5FBF3F5056130BD00100240D1
:103EC00000127A0000093D007501002085010020E4
:103ED0002DE9FE4304460D461DA000680290002017
:103EE0000090019000269DF808106B4606224420A1
:103EF00000F084F89DF801009DF8001040EA0126CA
:103F0000304601F0A7FC8146124901F0B7FC80461B
:103F1000114901F0DDFB0746104901F07BFD2060EF
:103F20009DF804009DF8031040EA0126304601F098
:103F300091FC81460A4901F0A1FC8046064901F046
:103F4000C7FB0746074901F065FD2860BDE8FE8311
:103F5000FD00000000002F4300FF7F4700003442B7
:103F60000000FA420000C0403EB5892002900020C7
:103F7000009001909DF8081000230122442000F0D9
:103F80007AF86B4606220021442000F037F800241E
:103F900005E01DF804100EA0FCF792F9641C062C35
:103FA000F7DB9DF808100CA0FCF78AF99DF80000DB
:103FB00000069DF8011040EA01409DF8031040EA18
:103FC00001209DF8041040EA010528463EBD00008E
:103FD00030782578200000000D0A53485434305FB3
:103FE000524541445F53455249414C5F4E554D4205
:103FF00045523A307825780D0A0000002DE9F0414D
:1040000006460F4614461D46FFF758FB002141EABD
:104010004601C8B2FFF71EFBFFF79CFB20B1FFF77C
:1040200073FB0120BDE8F0813846FFF713FBFFF773
:1040300091FBFFF743FB0A2000F0E4FC012101EBB8
:104040004601C8B2FFF706FBFFF784FB0DE0012C29
:1040500004D10020FFF78AFA287003E00120FFF75F
:1040600085FA2870601EC4B26D1C002CEFD1FFF7DA
:104070004BFB0020D6E72DE9F04105460E461746DA
:104080009846FFF71BFB002141EA4501C8B2FFF744
:10409000E1FAFFF75FFB20B1FFF736FB0120BDE837
:1040A000F0813046FFF7D6FAFFF754FB00240CE00E
:1040B00018F80400FFF7CEFAFFF74CFB18B1FFF732
:1040C00023FB0120EBE7601CC4B2BC42F0DBFFF72E
:1040D0001BFB0020E3E7704710B500F001F810BDAE
:1040E0000CB50020019000903348006840F4803007
:1040F0003149086000BF3048006800F4003000908B
:104100000198401C0190009818B90198B0F5A06F73
:10411000F1D12948006800F4003010B1012000906E
:1041200001E0002000900098012843D12348006856
:1041300040F01000214908600846006820F00300A4
:1041400008600846006840F0020008601A484068AD
:10415000194948600846406848600846406840F48D
:10416000806048600846406820F47C10486008463B
:10417000406840F4E81048600846006840F08070ED
:10418000086000BF0C48006800F000700028F9D0FB
:104190000948406820F00300074948600846406825
:1041A00040F00200486000BF0348406800F00C0087
:1041B0000828F9D10CBD0000001002400020024088
:1041C000042808D14FF0E021096941F004014FF0C3
:1041D000E022116107E04FF0E021096921F00401BC
:1041E0004FF0E022116170477047000010B513488E
:1041F000006840F001001149086008464068104915
:1042000008400E494860084600680E4908400B49BE
:1042100008600846006820F480200860084640686E
:1042200020F4FE0048604FF41F008860FFF754FF41
:104230004FF000600449086010BD0000001002400B
:104240000000FFF8FFFFF6FE08ED00E010B50121C9
:10425000880700F03FF8012821D111490870114862
:104260000068401C0F490860084600683C21B0FB0C
:10427000F1F201FB120010B901200B490870094846
:1042800000684FF46161B0FBF1F201FB120010B95C
:104290000120064908700121880700F00CF810BDC4
:1042A0001800002014000020190000201A0000202F
:1042B000CA4302827047CA430282704721B1028812
:1042C00042F00102028004E002884FF6FE731A40B9
:1042D0000280704730B50246002000230024158A72
:1042E00005EA0103958905EA010413B10CB1012027
:1042F00000E0002030BD1AB183890B43838102E0C6
:1043000083898B438381704701894FF6F87211408E
:1043100001817047002202881D4B98420ED01D4B30
:1043200098420BD0B0F1804F08D01B4B984205D07B
:104330001A4B984202D01A4B984204D14FF68F7311
:104340001A404B881A43174B984207D0164B984295
:1043500004D04FF6FF431A40CB881A4302808B8863
:1043600083850B8803850A4B98420BD0094B9842F2
:1043700008D00E4B984205D00D4B984202D00D4B01
:10438000984201D10B7A0386012383827047000093
:10439000002C0140003401400004004000080040AF
:1043A000000C00400010004000140040004001409C
:1043B00000440140004801401FB501210846FFF7B5
:1043C000FDFC4FF08040FFF79FFF0020ADF80A0092
:1043D000ADF8060042F20F70ADF8080041F61F403C
:1043E000ADF8040000208DF80C0001A94FF08040CA
:1043F000FFF790FF01218807FFF75AFF01221146BE
:104400009007FFF778FF4FF4A060FFF75BFA1C20DE
:104410008DF8000001208DF8030002208DF80100C6
:1044200001208DF802006846FFF714FA0121880781
:10443000FFF744FF1FBD000010B540F2255116489C
:1044400000F04FF8012826D1134800F005F9134970
:1044500008700846007808280CD111480078002818
:1044600019DD0F480078401E0D4908700DA0FBF7BC
:1044700027FF10E009480078032803D101200A49EA
:10448000086008E00548007800F0F6FE034801786F
:1044900006A0FBF715FF10BD0038014034010020D5
:1044A0007401002008200800480100202563000056
:1044B00021B1828942F40052828104E082894DF662
:1044C000FF731A408281704702460020B1F5007FD9
:1044D00000D100BF13880B400BB1012000E0002089
:1044E000704770B50246002400230025002040F6E6
:1044F0006A16B14200D100BFC1F3421501F01F039B
:10450000012606FA03F3012D02D19689334006E015
:10451000022D02D1168A334001E0968A33400C12F4
:10452000012606FA04F41688344013B10CB10120B8
:1045300000E0002070BDF0B50346002400260025F1
:10454000002040F66A17B94200D100BF1846C1F3F7
:10455000421401F01F06012707FA06F5012C01D1CC
:104560000C3004E0022C01D1103000E014301AB1FC
:1045700007682F43076002E00768AF430760F0BD9C
:104580002DE9F04786B005460E460024A24600BF3E
:10459000A1460027B08900B100BF2F462C8A4CF6F7
:1045A000FF700440F08804432C82AC894EF6F3106F
:1045B0000440B08831890843718908430443AC81C1
:1045C000AC8A4FF6FF400440B0890443AC8201A896
:1045D000FFF714FC1F48874202D1DDF810A001E06C
:1045E000DDF80CA0A88900F4004040B10AEBCA0035
:1045F00000EB0A1031684900B0FBF1F807E00AEB64
:10460000CA0000EB0A1031688900B0FBF1F86420A1
:10461000B8FBF0F004012009642101FB1089A8898E
:1046200000F4004040B1322000EBC900B0FBF1F0D3
:1046300000F00700044308E0322000EB0910642179
:10464000B0FBF1F000F00F0004432C8106B0BDE890
:10465000F08700000038014001468888C0F3080058
:104660007047C1F308028280704700BFFEE7000078
:1046700010B586B004464FF4A060FFF723F901217E
:104680000420FFF7ABFB01210846FFF7A7FB012140
:104690008803FFF7A3FB18208DF817004FF4007074
:1046A000ADF8140003208DF8160005A91B48FEF78D
:1046B00014FE04208DF817000002ADF8140005A9BF
:1046C0001648FEF70AFE01940020ADF810000C20F9
:1046D000ADF80E000020ADF80C00ADF80A00ADF802
:1046E000080001A90E48FFF74BFF01210C48FFF716
:1046F000DFFE012240F225510948FFF71CFF25206B
:104700008DF8000001208DF803008DF801008DF870
:1047100002006846FFF79EF806B010BD0008014091
:1047200000380140490050EAC12018BF04204A0D5A
:1047300018BF40F0010040F2FF72B2EB515F08BFBA
:1047400040F00200012808BF0520704740F2013206
:1047500000204FF0E04101F00BBA0000024A0020B7
:10476000110701F005BA000001FDFFFF10B5044676
:10477000D1E9000100F002F8206010BDF8B5044650
:104780000D466A4600F0CCF900987E300090002873
:104790001EDC002213462046294600F009FE17D0F1
:1047A000002140F608004FF000000646204629464A
:1047B00000F0B8FD044640F6080006EA00014FF09C
:1047C000000034F0004004BF0220FDF74EFD29E058
:1047D0000098FF2828DB002108464FF0000000F475
:1047E0004006002213462046294600F0ADFE8CBF4D
:1047F000002501250220FDF738FD4FF0FF4446B1AA
:10480000002D0CBF4FF400004FF48000B04218BFE1
:10481000084C042108464FF00000002D04BF84F02E
:104820000040F8BD2046F8BD20462946BDE8F840C6
:1048300000F078BDFFFF7F7F10B504460A46D4E93B
:104840000003194600F0D4F9C4E9000110BD303866
:104850000A2801D2012070470020704700BF70472E
:1048600010B504460C2C0ED127A0FBF729FD4021E2
:104870002648FCF7B5F826A0FBF722FD264927A01D
:10488000FBF71EFD10BD152C0ED100202449087029
:1048900040211E48FCF7A4F81BA0FBF711FD1E49A0
:1048A0001EA0FBF70DFDEDE77E2C00DDEAE7202CD6
:1048B00014DA15A0FBF704FD1948007848B1002070
:1048C00017490870114800F02DF840210F48FCF7F7
:1048D00087F8114911A0FBF7F3FC08E00B481049D9
:1048E000097844540E480078401C0D4908700C4863
:1048F0000078402806DB0020094908704021034861
:10490000FCF76EF800BFBDE70D0A0000D4030020DD
:104910001B5B324A1B5B48003C01002025730000F2
:10492000740100202DE9F047054605274FF00008E7
:1049300000241BE0154951F83400FBF7E7FF064659
:10494000124850F8341032462846FBF7FEFF60B993
:10495000A81900F06BFC81460C4800EBC4004168CC
:10496000484688474FF0010802E0641CBC42E1DB86
:1049700000BFB8F1000F06D1294605A0FBF7A0FC47
:1049800004A0FBF79DFCBDE8F08700004C0100206F
:10499000257300003A20636F6D6D616E64206E6F49
:1049A0007420666F756E640D0A00000008B56846D5
:1049B00000F042FC18B19DF80000FFF751FF08BD60
:1049C00010B56FF00400FFF7FBFB0A4800680A49C6
:1049D000B0FBF1F0094908700846007800EB40018F
:1049E000C1EBC0104FF6FF7101EAC0000449088016
:1049F00010BD00000000002000127A008A01002093
:104A00008C0100200146114A12884A434FF0E023EE
:104A10005A6100229A611A46126942F001021A6133
:104A200000BF4FF0E022106900F001021AB100F45B
:104A30008032002AF5D04FF0E022126922F0010204
:104A40004FF0E0231A6100229A6170478C01002028
:104A50000146114A12784A434FF0E0235A6100227E
:104A60009A611A46126942F001021A6100BF4FF0C2
:104A7000E022106900F001021AB100F48032002A2D
:104A8000F5D04FF0E022126922F001024FF0E0234E
:104A90001A6100229A6170478A0100207047000065
:104AA00001200149087070479001002010B50F489F
:104AB0004068401C0D4948600D490E48FFF708FA50
:104AC0000C4800680949486209480068886208463D
:104AD0000078012805D10846FFF7CEF800200349E9
:104AE000087000200449087010BD000090010020EB
:104AF000200000201C0000201800002070B5044693
:104B00000D4600BF40210548FFF7DEFC0028F9D024
:104B1000A1B20248FFF7A5FD204670BD0038014054
:104B200010B5144600222260114A21F0004393423E
:104B3000A8BF10BD53EA000208BF10BDB3F5801F27
:104B4000A8BF226807DA362201F012F86FF03502AA
:104B500021F000432260DFF81CC06FF31E510CEB04
:104B600023531A4441F0FF5141F00051226010BD1F
:104B70000000F07F02FCFFFF01464422002905DB14
:104B8000914203DA024850F82100704701A0FCE787
:104B900024000020CEDED0A7B5C4CCECC6F8B4FA11
:104BA000C2EB000070B50646052509A0FBF788FB9F
:104BB000002409E00B4850F834100BA0FBF780FBF1
:104BC0000AA0FBF77DFB641CAC42F3DB70BD000068
:104BD000746869732069732068656C7065727E0DF6
:104BE0000A0000004C010020257300000D0A00009F
:104BF0002DE9F04106460C4640F2FF75174635EAAE
:104C000014502BD000221346304600F0D1FB25D0A3
:104C10003A463046214600F0ABFF06460C4635EAE0
:104C2000145010D000221346304600F0C1FB15D1BD
:104C30000220FDF71AFBFFF791FD0A46214662F3B9
:104C40001E01BDE8F0810220FDF70FFBFFF77EFD9E
:104C50000A46214662F31E01BDE8F0813046214636
:104C6000BDE8F08110B504460EA12046FBF718FE02
:104C700018B10DA0FBF724FB10BD18A12046FBF7CF
:104C80000FFE18B1002016490860F5E715A120466F
:104C9000FBF706FE18B1012011490860ECE700BFE0
:104CA000EAE700002D680000796F752063616E20CF
:104CB000757365205B6F6E2F6F66662F626C696E11
:104CC0006B2074696D652F2D616C776179735D2040
:104CD0006374726C206C65640D0A00006F6E0000D6
:104CE000B40122426F666600FFF76AFEFFF764FBBD
:104CF000FEF78AFD4FF4E130FFF7BAFCFEF7F2FB56
:104D0000FEF77AFE00200D490860FEF767FC0C48AC
:104D1000FEF752FD0BA0FBF7D3FAFFF725F9044687
:104D200021460BA0FBF7CCFA40F6B830FFF76AFE3D
:104D300003E0FFF73BFE00F045F8FAE7B40122423A
:104D4000900100205553454231310D0A000000000A
:104D500053455249414C5F4E554D4245523A307889
:104D600025780D0A00000000F8B504460CA1204685
:104D7000FBF796FD98B16A460AA12046FBF75CFC5A
:104D800001280BD1094900984863486B00F012FCD8
:104D900005462A460B4606A0FBF792FA00BFF8BD6F
:104DA0005049000050492025660000009001002075
:104DB00050492073657420746F20252E32660D0AC9
:104DC0000000000010B50C48007820B100200A490E
:104DD0000870FFF76BFE0948007820B100200749F2
:104DE0000870FFF75DFE0648007820B100200449F6
:104DF0000870FFF753FE10BD1800002019000020B6
:104E00001A0000207FB5044601205F4908705FA1A9
:104E10002046FBF745FD08B100BFFEE75DA1204637
:104E2000FBF73EFD18B15CA0FBF74AFA7FBD64A119
:104E30002046FBF735FD78B103AA63A12046FBF7B6
:104E4000FBFB012807D15049039848600846416898
:104E50005FA0FBF735FA95E063A12046FBF720FD44
:104E600090B16A4661A12046FBF7E6FB01280AD112
:104E70001022694644480830FBF7FBFD42490831DF
:104E80005CA0FBF71DFA7DE060A12046FBF708FD62
:104E900098B103AA5FA12046FBF7CEFB01280BD1F6
:104EA000394903984862486A00F084FB05462A465F
:104EB0000B465AA0FBF704FA64E05EA12046FBF71C
:104EC000EFFC98B103AA5DA12046FBF7B5FB0128D2
:104ED0000BD12D4903988862886A00F06BFB054668
:104EE0002A460B4657A0FBF7EBF94BE05BA12046A7
:104EF000FBF7D6FC90B103AA59A12046FBF79CFB17
:104F000001280AD19DF80C001F4981F82C000846A1
:104F100090F82C1054A0FBF7D3F933E058A12046A9
:104F2000FBF7BEFC98B103AA57A12046FBF784FB10
:104F300001280BD1144903980863086B00F03AFB71
:104F400005462A460B4652A0FBF7BAF91AE056A1CD
:104F50002046FBF7A5FC90B101AA55A12046FBF71E
:104F60006BFB01280AD10C2201A907481830FBF776
:104F700080FD0549183151A0FBF7A2F902E054A0C9
:104F8000FBF79EF900BF51E7900100202D616C777F
:104F9000617973002D680000757365205B7365741B
:104FA000203C7661723E203C76616C3E5D20746FE1
:104FB000207365742076616C7565730D0A000000BE
:104FC0007473747000000000747374702025750091
:104FD00074696D657374616D702073657420746F8E
:104FE0002025640D0A00000069700000697020250A
:104FF0003135730069705F61646472657373207327
:10500000657420746F2025730D0A000073746D7031
:105010000000000073746D7020256600536874549E
:10502000656D702073657420746F20252E32660DB7
:105030000A0000007368756D000000007368756DEC
:105040002025660053687448756D69207365742067
:10505000746F20252E32660D0A0000006377000071
:1050600063772025686875004375725765617468B9
:1050700065722073657420746F2025640D0A00002A
:1050800063746D700000000063746D70202566000D
:1050900043757254656D702073657420746F20259C
:1050A0002E32660D0A000000616463640000000097
:1050B0006164636420253131730000006164636FB3
:1050C00064652073657420746F2025730D0A0000D9
:1050D000556E6B6E6F776E20636F6D6D616E640DD4
:1050E0000A00000070B5044628A12046FBF7D8FB53
:1050F00018B127A0FBF7E4F870BD2748416827A046
:10510000FBF7DEF82449083128A0FBF7D9F822493B
:10511000486A00F04FFA05462A460B4628A0FBF7DE
:10512000CFF81D49886A00F045FA05462A460B4625
:1051300027A0FBF7C5F8184890F82C1028A0FBF71B
:10514000BFF81549086B00F035FA05462A460B46AC
:1051500028A0FBF7B5F8104918312AA0FBF7B0F8E2
:105160000D49486B00F026FA05462A460B4629A051
:10517000FBF7A6F80849886B00F01CFA05462A469A
:105180000B4627A0FBF79CF800BFB5E72D68000091
:105190004E6F6E650D0A00009001002074696D6508
:1051A0007374616D703A2025750D0A0069705F6136
:1051B0006464726573733A2025730D0A0000000061
:1051C00053687454656D703A20252E32660D0A00BE
:1051D00053687448756D693A20252E32660D0A00B1
:1051E000437572576561746865723A2025750D0ABA
:1051F0000000000043757254656D703A20252E3210
:10520000660D0A004164636F64653A2025730D0AD8
:105210000000000050493D252E32660D0A000000B6
:1052200050443D252E32660D0A00000000E0401C6F
:1052300001782029FBD0704701460E4800680D4ACE
:105240005268904213D00B4842684068401C094B9A
:10525000586003F10800805C087018464068B0F59B
:10526000007F02D100201A465060012070470020C4
:10527000FCE70000CC01002008490A680968491CC5
:10528000064B196003F10801885408390968B1F523
:10529000007F02D100211A4611607047CC01002026
:1052A00010B500290AD00878002807D005487844AE
:1052B000FCF768FF002801D0002010BD02487844A8
:1052C00010BD0000021B0000FA1A000010B50029F2
:1052D0000AD00878002807D005487844FCF752FF28
:1052E000002801D0002010BD0248784410BD000005
:1052F000561C00004E1C000010B500290AD008788A
:10530000002807D005487844FCF73CFF002801D06E
:10531000002010BD0248784410BD0000461C00006B
:105320003E1C000021F00042A2F16052B2F5801F45
:1053300001F0004328BFD2F17F6C0BD95FEA001C5B
:1053400043EAC20242EB507018BF704728BF20F0FA
:1053500001007047B2F5801FBCBF184670474FEA86
:10536000410C1CF5001F02D2084600F04EBB70B580
:1053700000F096F800000089FFF7F6BF4FF00040FC
:10538000A0F580007047000002494FF0000000F0D7
:10539000BDBB00BF0000F87F491058BFC1F14041BC
:1053A0005B1058BFC3F140438B42EFF3008070475E
:1053B00051EA030C17D41CF5801F58BFBCF5801FA1
:1053C00000F10680994218BF704708BF90427047AD
:1053D00007D711F5801F58BF13F5801F19D49942C4
:1053E0007047894270471CF5801F08D5BCF5801FA7
:1053F000F7D58B4218BF704708BF824270474FF401
:10540000001C1CEB410F38BF1CEB430F01D28B4239
:10541000704770B500F044F8922449004FF00051F5
:105420004FF08053FFF7B8BF51EA030C17D41CF5B7
:10543000801F58BFBCF5801F00F10680994218BF3D
:10544000704708BF9042704707D711F5801F58BFBB
:1054500013F5801F19D499427047894270471CF593
:10546000801F08D5BCF5801FF7D58B4218BF704749
:1054700008BF824270474FF4001C1CEB410F38BF3D
:105480001CEB430F01D28B42704770B500F008F857
:10549000922449004FF000514FF08053FFF77CBF3A
:1054A0000EF1020E2EF0030E5EF8046B364205D4A8
:1054B000012A43EB030515F5001F12D8012841EB23
:1054C000010C1CF5001F0CD80ED14FEAD17C15F54C
:1054D000001F0CEB4C0C0CF1020C08BF4CEBD37C06
:1054E00004E04FF0080C01E04FEAD37C0CEB4C05D4
:1054F00026FA05F606F00706B6F1040C06D20EEB06
:10550000860CBDE870404CF0010C6047DFE80CF001
:10551000090B02024FF000414FF00000A1F50021FD
:1055200070BD19461046012851EB010418BFD4F58F
:10553000001484BF002001F0004170BD0808A0F5F0
:1055400000114FEA3101704753EA010C17D41CF5E2
:10555000801F58BFBCF5801F00F106808B4218BF2A
:10556000704708BF8242704707D713F5801F58BFA6
:1055700011F5801F19D48B4270479B4270471CF570
:10558000801F08D5BCF5801FF7D5994218BF70471A
:1055900008BF904270474FF4001C1CEB430F38BF0C
:1055A0001CEB410F01D2994270470FB40CBC03BCF5
:1055B000FFF76BBF43004FEAD30C4FEA3C0C43406C
:1055C0001FBF40070CF1605113F0FE4F70471CF0F5
:1055D000006F03D100200CF0004170470CF0004335
:1055E00043EA507010B540EACC0000F0C8F900BFA3
:1055F000000000924FEA0001FFF7A0BF4FF000410A
:105600004FF00000A1F500217047000090EA010F63
:1056100048BF81F0004100F10482421A3CBF801A69
:1056200089184FEAD0524FF07F4C1CEA410FA2EB91
:10563000D15318BF9CEA026F00F03B804FF0004C42
:105640004CEA00204CEA012121FA03FC10EB0C0C7F
:105650001ED202F1FF325FEA1C2040EBC25038BF7D
:1056600070471CF07F0F4FEA400C18BFBCF17F4F12
:1056700038BF7047C3F12003994008BF20F00100F4
:10568000BCF17F4F38BF7047A0F1C04000F0BDB9FA
:105690004FEA3C00000A40EBC25028BF1CF0FF0F4D
:1056A0004FEA400CE6D018BFBCF17F4F38BF7047BF
:1056B000EAE79CEA026F05D010EA5C0F08BF00F031
:1056C0000040704710B500F05AF900BF64FBBE3EC1
:1056D0004FF47F0C1CEAD0121EBF1CEAD11392EAD1
:1056E0000C0F93EA0C0F00F0858090EA010F48BF81
:1056F00042F4807240F4000C41F400002CF07F4131
:1057000020F07F4000B58142A2EB03020FF2081C9B
:10571000ACEB504EC0F100009EF800E04FEA4E0E98
:1057200000FB0EFC38BF49004FEA2C1C02F5FA02C0
:105730000CFB0EF34FEACE1E4FEA112C4FEAC121AB
:105740000EEB635E42EB22420EFB0CFC4FEA1C5355
:1057500000FB03114FEA112C4FEA01310EFB0CFC48
:105760004FEADC4C00FB0C11C14228BF09184CEB7E
:1057700003335DF804EB10EB410143EBC250B2F58B
:105780007C0F38BF704729D512F0F00F1CBF00F115
:10579000C04000F000407047008182838485868786
:1057A00088898B8C8D8E8F919293959697999A9CE0
:1057B0009D9FA0A2A3A5A7A8AAACAEB0B2B3B5B74F
:1057C000B9BCBEC0C2C5C7C9CCCED1D4D7D9DCDF25
:1057D000E2E6E9ECF0F3F7FAFE0000004FEA400CD5
:1057E0000CF1807CBCF17E4F28BF7047B0F1C04007
:1057F00000F00BB990EA010F0CEAD11348BF42F454
:105800008072624538BF634507D213F47F0F16D00C
:1058100080EA010000F00040704710B500F0AFF8DA
:10582000097EFC3E00F005B880EA010000F000406F
:10583000704780EA010000F0004000F0E6B812F482
:105840007F0F04BF0248704780EA010000F0DDB816
:105850000000C07FB0FA80F310FA03F2C3F19D0399
:105860000AD0D90501EB1220530638BF704700F16A
:10587000010008BF20F00100704700004FF47F0CCA
:105880001CEAD0121EBF1CEAD11392EA0C0F93EA55
:105890000C0F00F0478090EA010F48BF42F480727D
:1058A0004FF0004C4CEA00204CEA012102EB0302CD
:1058B000A0FB0113A2F50002002918BF43F0010369
:1058C0005B0028BF4FEA330342EB22425FEA132C0E
:1058D0004CEBC2502EBFBCEB436FB2F57C0F704750
:1058E0004FEA036CBCF1004F08BF20F00100B2F595
:1058F0007C0F38BF70470BD582F0FF0212F5803F56
:10590000C8BF704700F1C040D8BF00F000407047EA
:1059100000F5000C5FEA4C0C48BF7047B0F1C04086
:1059200000F073B890EA010F0CEAD11348BF42F4BB
:105930008072624538BF634504D280EA010000F0FE
:105940000040704710B500F01AF800BF8900013E12
:1059500000F007B800F009B85FEA410C5FEA1C6C80
:1059600008D080EA010000F050B85FEA400C5FEA1E
:105970001C6CF6D14FF00040A0F5800070470EF18E
:10598000020E2EF0030E5EF8044B244204D44FEABC
:105990004102B2F17F4F11D84FEA4003B3F17F4F7C
:1059A0000CD80ED14FEAD07CB2F17F4F0CEB4C0CEF
:1059B0000CF1020C08BF4CEBD17C04E04FF0080C5A
:1059C00001E04FEAD17C0CEB4C0324FA03F404F021
:1059D0000704B4F1040C06D20EEB840CBDE81040B1
:1059E0004CF0010C6047DFE80CF0070802024FF0B2
:1059F0000040A0F5800010BD0846420018BFD2F15B
:105A0000807288BF00F0004010BDFF2141EAD050F5
:105A1000C005704790EA010F48BF81F000413FF593
:105A2000FCAD421A04D882F00042A0EB02001144FF
:105A30004FEAD0524FF07F4C1CEA410FA2EBD153FA
:105A400018BF9CEA026F4AD04FF0004C4CEA00208D
:105A50004CEA012121FA03FCB0EB0C0C0FD412F03C
:105A6000FE0F36D05FEA4C001DD5001240EBC2504D
:105A700038BF70471CF03F0F18BF70470BE0A2F112
:105A800001025FEA1C2040EBC25038BF70471CF097
:105A90007F0F18BF7047C3F12003994014BF401E09
:105AA00020F00100704780084FEA122308BF7047BA
:105AB000B0FA80FCA2EB0C02CCF1280C60FA0CF0DE
:105AC00093EA122F04BF00EBC25070474FEAC37035
:105AD0007047130A5FEADC1008BF7047F6E79CEADC
